:020000040800F2
:1000000058FA0020B1020008D52E0008A1260008E9
:10001000D12E000869220008CB3C00080000000037
:10002000000000000000000000000000F1310008A6
:1000300081240008000000005D2F00082D33000817
:10004000CB020008CB020008CB020008CB0200085C
:10005000CB020008CB020008CB020008CB0200084C
:10006000CB020008CB020008CB020008CB0200083C
:10007000CB020008CB020008CB020008CB0200082C
:10008000CB020008CB020008CB020008CB0200081C
:10009000CB020008CB020008CB020008CB0200080C
:1000A000CB020008CB020008CB020008CB020008FC
:1000B000CB020008A934000845350008CB0200082F
:1000C000CB020008CB020008CB020008CB020008DC
:1000D000CB0200080D380008953800081D390008CB
:1000E000CB020008CB020008CB020008CB020008BC
:1000F000CB020008CB020008CB020008CB020008AC
:10010000CB020008CB020008D9350008CB0200085A
:10011000CB020008CB020008CB020008CB0200088B
:10012000CB020008CB020008CB020008CB0200087B
:1001300000F002F800F092F80AA090E8000C824467
:100140008344AAF10107DA4501D100F087F8AFF244
:10015000090EBAE80F0013F0010F18BFFB1A43F0A5
:1001600001031847A46E0000C46E0000103A24BFBB
:1001700078C878C1FAD8520724BF30C830C144BF0C
:1001800004680C607047000000230024002500264E
:10019000103A28BF78C1FBD8520728BF30C148BFEA
:1001A0000B6070476E2900F03D84702900F07F8558
:1001B000662906F0A186652906F09E86672906F065
:1001C0009B866129AFF3008003681B0A28BF41F0BA
:1001D0008001692900F0B480642900F0B18075299C
:1001E00000F0AE806F2900F00D85782900F04B8576
:1001F000E92900F0A784E42900F0A484F52900F09F
:10020000A184EF2900F00A85F82900F04A850368E7
:10021000DB0928BF41F08001632900F0FC877329C6
:1002200001F00180E32901F00C80F32901F0118035
:10023000002070471FB500F05CFA01F017FA0400C7
:100240000020002106F042FE401C606000200021DA
:1002500006F026FEE0601FBD10B510BD01F0D8F914
:100260001146FFF7E7FF05F011FF01F0B1FA03B403
:10027000FFF7F2FF03BC01F0FBFA00000B49D1F8D5
:1002800000C04A685CF8043B1068184442F8040B4C
:100290008C4528BFA1F1DC0C8A4228BFA1F1DC0209
:1002A000C1F800C04A6020F000407047ECF3002025
:1002B0000948804709480047FEE7FEE7FEE7FEE7FA
:1002C000FEE7FEE7FEE7FEE7FEE7FEE70448054936
:1002D000054A064B70470000493400083101000808
:1002E00058F4002058FA002058F6002058F6002054
:1002F0001CB50C46064B7B4469460090204600F036
:10030000AAFB04460020694600F0B8FB20461CBD4D
:10031000830700000FB41CB5084B06AA7B4469464E
:100320000090059800F097FB04460020694600F015
:10033000A5FB20461CBC5DF814FB00005D07000017
:100340002DE9F0410646002410687529314616A5AE
:1003500010D000F0D3FA002802DA404213A507E0DB
:1003600031688A0701D512A502E0490704D511A515
:10037000012401E000F0CBFA00210A2206F1240753
:1003800009E0B0FBF2FCB0FBF2F302FB1C003030E2
:1003900078541846491C0028F3D123462A46304693
:1003A000BDE8F04100F0E5BA000000002D000000BB
:1003B0002B000000200000002DE9F05F8946044674
:1003C0004FF0000ADFF874B1FB44C0F820A02046CB
:1003D000E1688847002874D0252806D0D4E9012197
:1003E0009047206A401C2062F1E700265F462046C5
:1003F000E16888472028054607DB312D05D27819AA
:1004000010F8200C08B10643F1E7B00701D526F03B
:100410000406C4F81CA00027C4F818A02A2D09D08F
:10042000284603F068FC38B304EB8708303DC8F871
:10043000185019E059F8041B204604EB870291611B
:10044000E1688847012F054618D1E069002820DAC5
:1004500026F020061DE0D8F8180000EB800005EB20
:1004600040003038C8F818002046E1688847054643
:1004700003F041FC0028EED1012F0AD02E2D08D127
:100480002046E16888477F1C0546022F46F020067B
:10049000C4DBA069002803DA404246F00106A061EF
:1004A000F00701D026F010066C2D0BD0682D09D076
:1004B0004C2D39D06A2D35D0742D35D07A2D33D0CE
:1004C00016E038E0E1682F4620468847B8420546E6
:1004D00009D16C2F26D04FF48060E1680643204696
:1004E0008847054604E06C2F1AD04FF4807006430D
:1004F0000DB3A5F14100192802D8203546F4006655
:100500004A462946204626604E46FFF74BFE80B1FC
:1005100001280BD0F61D26F0070000F1080956E768
:100520004020E4E78020D8E70020D6E706F1040960
:100530004DE7284652E7206ABDE8F09F646B000053
:100540000FB400B58DB010A9099000910B904FF039
:10055000FF300A9000200C90064878440690064828
:1005600078446A4607900F9909A800F0BFFB0DB0C8
:100570005DF814FBAF070000C70700002DE9FF5F1F
:100580001D464FF0FF3B91464FF000085F46D5E90E
:100590000146A96901987F1C8847296A82468847D5
:1005A0000028F6D1BAF1FF3F0CD0002E24F4C0642D
:1005B00019DD600614D5BAF12B0F09D0BAF12D0F51
:1005C0000ED103E0584604B0BDE8F09F44F48064C7
:1005D000A96901987F1C8847761E8246002E02DD9D
:1005E000BAF1300F03D0B9F1000F26D032E0A9697B
:1005F000761E01987F1C44F400748847002E8246C2
:1006000005DDBAF1780F06D0BAF1580F03D0B9F171
:10061000000F10D01EE0B9F1000F02D0B9F1100F99
:1006200018D1A969761E01987F1C24F400748847AC
:100630008246102002E0082000E00A20814609E0FE
:10064000A96908FB0908761E01987F1C44F4007410
:1006500088478246002E05DD4946504600F032FBB1
:100660000028EDDAE96901988847A00502D46FF007
:100670000100A8E7E00725D1600613D5600502D583
:10068000C8F1000000E0404629680A1D2A60096898
:10069000220501D5087015E0220701D5088011E078
:1006A00008600FE02868011D29600068210502D557
:1006B00080F8008006E0210702D5A0F8008001E064
:1006C000C0F8008038467EE70B4910B5A1F17C02E6
:1006D0000A4CC2E93712372106E000EB104342F81A
:1006E0002130074B00FB03400B1EA1F10101F4DC9C
:1006F00010BD0120E8E700008CF30020E119D66668
:10070000CD0D010030B505460B462A4613F8014BC6
:1007100012F8010B08B1A042F8D01CB1002802D099
:100720006D1CF1E7284630BD032A40F2308010F0FE
:10073000030C00F0158011F8013BBCF1020F62447C
:1007400098BF11F801CB00F8013B38BF11F8013B0D
:10075000A2F1040298BF00F801CB38BF00F8013BBA
:1007600011F0030300F02580083AC0F0088051F82A
:10077000043B083A51F804CBA0E80810F5E7121D35
:100780005CBF51F8043B40F8043BAFF30080D20754
:1007900024BF11F8013B11F801CB48BF11F8012B20
:1007A00024BF00F8013B00F801CB48BF00F8012B43
:1007B000704710B5203AC0F00B80B1E81850203ACD
:1007C000A0E81850B1E81850A0E81850BFF4F5AFF1
:1007D0005FEA027C24BFB1E81850A0E8185044BF7B
:1007E00018C918C0BDE810405FEA827C24BF51F8E8
:1007F000043B40F8043B08BF7047D20728BF31F8DC
:10080000023B48BF11F8012B28BF20F8023B48BF2C
:1008100000F8012B70474FF000020429C0F012804D
:1008200010F0030C00F01B80CCF1040CBCF1020FA3
:1008300018BF00F8012BA8BF20F8022BA1EB0C0178
:1008400000F00DB85FEAC17C24BF00F8012B00F86E
:10085000012B48BF00F8012B70474FF0000200B594
:10086000134694469646203922BFA0E80C50A0E8D3
:100870000C50B1F12001BFF4F7AF090728BFA0E881
:100880000C5048BF0CC05DF804EB890028BF40F84D
:10089000042B08BF704748BF20F8022B11F0804F8F
:1008A00018BF00F8012B704770477047704770B54C
:1008B000044685690068C10601D5302600E020267F
:1008C000C00707D070BDD4E9012130469047206AA7
:1008D000401C20626D1EF6D570BD70B5044685695A
:1008E0000078C00707D170BDD4E9012120209047CE
:1008F000206A401C20626D1EF6D570BD09684A054D
:1009000001D540B27047C905FCD500B270470968EF
:100910004A0501D5C0B27047C905FCD580B2704701
:1009200070B50C460546012A05D02878800600D50A
:10093000EA69002302E0012305E05B1C934202D236
:10094000E05C0028F9D1A869E618C01AA861286AF5
:10095000184428622846FFF7AAFF04E0D5E90121E0
:1009600014F8010B9047B442F8D32846FFF7B5FFBF
:1009700070BD2DE9F0470D4699469246044600F1B8
:1009800024080168880604D5E06921F0100121607F
:1009900000E00120A84201DD471B00E00027A1691B
:1009A0007A1902EB0900081AA0612078C00602D467
:1009B0002046FFF77CFF002608E0D4E901211AF861
:1009C00006009047206A401C761C20624E45F4DBEE
:1009D0002078C0060AD52046FFF769FF06E0D4E973
:1009E000012130209047206A401C2062381EA7F168
:1009F0000107F4DC07E0D4E9012118F8050090476D
:100A0000206A401C2062281EA5F10105F3DC204667
:100A1000FFF763FF2078000602D50220BDE8F087CB
:100A20000120FBE711680268006A530501D50870D0
:100A30000AE0D30501D5088006E0130603D5C217E6
:100A4000C1E9000200E008600120704701694A1C0A
:100A500002610878704700B58FB0CDE901310021FF
:100A6000059105497944CDE9031011466846FFF721
:100A7000A3FC0FB000BD0000E5FFFFFF0A6802F80D
:100A8000010B0A60704700002DE9FF5F15468A469A
:100A90000446DFF8AC80F8440027D8E900103E4651
:100AA000CDE9001010E03AF816106A4602A800F0EE
:100AB0008FFD411C07D02178890603D5E2693918DA
:100AC00091420DD80744761C2078800602D5E06953
:100AD000B84205DDAE42E6DB3AF816000028E2D166
:100AE000A069C01BA0612046FFF7E1FED8E9001015
:100AF000CDE90010002017E03AF818106A4602A865
:100B000000F066FDB0F1FF3F81460BD000250DF1EE
:100B1000080B05E0D4E901211BF8050090476D1C86
:100B20004D45F7D308F10100B0428046E4DB206A6E
:100B3000384420622046FFF7D0FEBDE8FF9F00004A
:100B4000AA6400002DE9F0418046D21D22F0070280
:100B50000025D2E90002F52915A614D0011E72F174
:100B6000000106DA0023D0EB030063EB020211A6BA
:100B700008E0D8F800108B0701D50FA602E049075E
:100B800001D50EA601251146002408F1240704E032
:100B900000F0DCF830323A55641C50EA0102F7D11B
:100BA0002B46324621464046BDE8F041FFF7E1BE04
:100BB000000000002D0000002B00000020000000BD
:100BC00030B4002100F1240408E002F00705D20847
:100BD000303542EA4372DB086554491C52EA03058A
:100BE000F3D10468002310A2250708D504F02004DF
:100BF0000C4304D0C46901230CA2641EC46130BC40
:100C0000FFF7B7BE10B5044621461068FFF77FFE18
:100C100002462046BDE810400023D1E7D21D22F055
:100C20000701D1E90023CBE70000000030000000FD
:100C3000F0B40D460188090502D5214C7C4402E040
:100C40001F4C7C440E34002100F1240608E002F021
:100C50000F071209E75D42EA03721B097754491C2A
:100C600052EA0307F3D102780023120704D5702D4E
:100C700006D009B1022311342246F0BCFFF779BE39
:100C800001231034F8E770B504460D46214610687C
:100C9000FFF73DFE024629462046BDE8704000238E
:100CA000C6E7D21D22F00703D3E90023C0E703689B
:100CB000126843F0200303600823C3610023B7E7F1
:100CC0000C6300003A2800D2303820F02002412A7C
:100CD00001D3A2F13700884201D34FF0FF307047B3
:100CE000026811441378016018467047D1600549C5
:100CF000794451610449794411620021116111461E
:100D000000F0ACBAEDFFFFFFDD000000426842B129
:100D1000016811F8013B23B1521EC0E900121846C8
:100D200070470121C160881E704742685AB1C3688C
:100D3000016843B983688B4205D0491E521CC0E943
:100D40000012002070474FF0FF30704730B5B0F10F
:100D50000A024FEA900E71F100034EEA817EB0EB79
:100D60000E0061EB91014FEA101E4EEA017E10EB7E
:100D70000E0041EB11114FEA102E4EEA016E10EBFE
:100D80000E0041EB11214FEA104E4EEA014E10EBDE
:100D90000E0041EB1141401841F100014FEAD00033
:100DA00040EA41704FEAD10110EB80054FEA81041F
:100DB00044EA907444EB01046D1944EB0404521BA3
:100DC000A3414FF0000348BF0A3200D530BD401C9C
:100DD00041F1000130BD10B5044600F03FFC006851
:100DE000005D00F0010010BD70472DE9FF4F0C467B
:100DF0001E464FF0FF378BB0D2E90001DDF860806E
:100E00000A908A46C1F30A5505B93D4600210846B5
:100E10004FF00000BAF1000F00F4400005DA00EBDB
:100E200080004FF4400101EA50004FEA9059B9F1B7
:100E3000010F00DDB9460A9850EA4A000ED044F688
:100E40001050A5F2FF3545432F14B8F1000F1ED006
:100E50007542291E1EDDC9F100021CE0B8F1010F28
:100E60004FF0000001D0302103E0F24305E02154AF
:100E7000401CB042FBDB30460022002121540B997C
:100E8000C1F80880C1E900200FB0BDE8F08FBD1B9C
:100E90006D1CDEE74A4600DA694206A800F02AFC2B
:100EA00006AB93E8070003AB83E8070050460A99B6
:100EB00000F0E4FC8DE80700A0F500501F3800901A
:100EC0000398002D09DD42F21F014A46084403A998
:100ED0000390684600F043FF08E0A0F500504A4642
:100EE0001F3803A90390684600F04DFF8DE8070006
:100EF0000004000C03D04FF0FF30410800E0104622
:100F0000B8F1000F03D00022009215461EE0751EB6
:100F100005D4FFF71BFF303262556D1EF9D5B3467D
:100F20000122084302D000227F1C04E020783028F0
:100F300001D100227F1E002A099786D01DE0112DC5
:100F400007DAFFF703FF303262556D1C50EA0102E9
:100F5000F5D1084302D00098C8B10EE00021681E08
:100F600005E0235C625C63542254401E491C8142AC
:100F7000F7DBAB46A81B401E0990002004F80B00CD
:100F80000B98099AC0F80880C0E9002B7CE711266D
:100F90004FF0000859E72DE9F04F88460446D21D6E
:100FA00022F0070191B0D1E90001CDE90A0102F078
:100FB0008EFE02460B98C00F01D02D2007E020685E
:100FC000810701D52B2002E0202101EAC000032A7D
:100FD000099001D0072A05DB03464146204600F070
:100FE00049FB0BE12078800601D5E06900E006208E
:100FF000B8F1650F814606D0B8F1660F18D0B8F188
:10100000670F70D131E00020B9F1110F009001DBC2
:10101000112301E009F101030AAA01A90CA8FFF7B5
:10102000E4FEDDE90C70002609F10105834647E086
:1010300001204B4600904FF000470AAA01A90CA8D6
:10104000FFF7D3FEDDE90DB00C995D46002610B91F
:1010500009F101000D18B9EB050003D4C0F1FF360A
:1010600009F10105A5EB09002BE0B9F1010F01DA47
:101070004FF001090020B9F1110F0090484601DD41
:10108000112300E003460AAA01A90CA8FFF7ADFE50
:10109000DDE90C704D4600268346207800070AD40F
:1010A000AB4500DA5D4601A8012D04DD411911F8B8
:1010B000011C302907D04F4502DA17F1040F04DA7A
:1010C000012082460FE06D1EEEE7002F02DCED1BD3
:1010D0003E4403E0781CA84200DD7D1CB81B00F1F3
:1010E000010A4FF000472078000703D4AA4501DB2E
:1010F0004FF0FF3A0021B7F1004F0DF143088DF892
:10110000431024D002202B23002F01DA7F422D230D
:101110000A21021EA0F1010000DC5FB197FBF1FC87
:1011200097FBF1F201FB1C7C17460CF1300C08F820
:1011300001CDEEE7A8F1010003702188090501D572
:10114000452100E06521A0F1010800F8011C099883
:101150000FA9A1EB0807FF1D00B10120411901EB08
:10116000EA70A1693844081A401EA0612078C006C0
:1011700002D42046FFF79BFB099828B1D4E901214E
:101180009047206A401C20622078C00622D5204665
:10119000FFF78DFB1EE0002E04DBB34502DD01A846
:1011A000805D00E03020D4E901219047206A401C96
:1011B0002062761CAAF101005FEA000A0AD100F061
:1011C00055FAC0680168405CD4E901219047206A63
:1011D000401C2062281EA5F10105DCDC07E0D4E9F3
:1011E000012118F8010B9047206A401C2062381E2C
:1011F000A7F10107F3DC2046FFF76FFB032011B0D6
:1012000043E610B5436913B1AFF3008001E0FFF787
:1012100087FB012010BD127800F124010A70002222
:101220004A700122EDE711684FF0FF32E9E710B58F
:10123000436913B1AFF3008001E0FFF725FC012003
:1012400010BD128800F1240182840022C284012290
:10125000EDE711684FF0FF32E9E700002DE9F34FA9
:101260004FF0000A0C4656468DB001200C9001F15B
:101270000C000B9062690B9801219047051E2DD040
:10128000252D2CD0216A8847C0B162690B980121B5
:101290009047216A88470028F7D16269411E0B9860
:1012A000904700E0761CA1690D988847216A88471D
:1012B0000028F7D1E1690D988847DBE7A1690D980F
:1012C0008847A842074601D1761CD3E7E1690D980B
:1012D00088477F1C02D1BAF1000F6FD06BE16269C1
:1012E0000B9800273D46394690472A2804D1626969
:1012F0000B98012190470125DFF8D08262690B9895
:1013000001219047A0F130010A290AD24745E5DCC6
:1013100007EB870100EB4107303FDFD445F01005B4
:10132000ECE7E90601D46FF000476C280AD04C289E
:1013300014D0682815D06A280DD074281CD07A28BB
:101340001AD01DE062690B98012190476C2802D0E9
:1013500045F0040514E045F002050DE045F02005D8
:101360000AE062690B9801219047682802D045F095
:10137000080505E045F4006562690B980121904776
:10138000C4E9015765283DD019DC58287AD00CDC17
:10139000452837D004DC252826D041289ED131E0CD
:1013A00046282FD0472899D12CE05B2877D0612898
:1013B00028D063287CD0642823D15AE0F6E06F2837
:1013C00048D008DC66281DD067281BD0692821D0AA
:1013D0006E2816D127E0702845D0732868D075286C
:1013E00047D078280DD14DE0A1690D988847252870
:1013F00005463FF469AFE1690D9888476D1C3FF4DD
:101400006AAFD8E00D9923466A466FF00100AFF34A
:101410000080C5E045F0400023464FF000026060C8
:10142000A80736D43EE0E8077FF447AF2068011DE7
:1014300021600068290501D506701BE7290701D541
:10144000068017E7A90703D5F117C0E9006111E786
:1014500006600FE745F0400023464FF00802606049
:10146000A80716D41EE040F60E0125EA01006060D0
:1014700016E045F0400023464FF00A026060A807DE
:1014800007D40FE045F040006060A80708D5234668
:1014900010220D996FF00100AFF3008080E007E0AB
:1014A000102223460D996FF00100FFF767F877E0EF
:1014B0004FF0000963284F46C8464B46CB4602D042
:1014C0005B2806D038E0E80601D40120A06001279F
:1014D00032E06269D4F80CB00B98012190475E2885
:1014E00007D14FF0010949466269D4F80CB00B9856
:1014F0009047216939B900210A4603AB43F82120FE
:10150000491C0829FADBD8B3216949B308F101085D
:1015100062690B98012190475D28F4D1B9F1000F61
:1015200009D0002003A951F82020D24341F82020FF
:10153000401C0828F7DB03AB2069002820794FEA1C
:1015400040701ED05B462246CDF80080CDE9019761
:101550000D9900286FF0010020DAAFF300801FE042
:10156000C11703AA00EBD1614B1121F01F0102EB5F
:101570008302411A13680120884003431360C7E7C0
:1015800019E00D99224600286FF00100009702DA59
:10159000AFF3008004E0AFF3008001E0AFF3008020
:1015A00000280ADA401C06D10C9820B14FF0FF3019
:1015B0000FB0BDE8F08F5046FAE7E90701D10AF114
:1015C000010A064400200C9054E60000CCCCCC0C60
:1015D00070B516460C46054600F040F8036893F8CF
:1015E0000101012806D0FF2C0FD8185D68B1012039
:1015F0002C7070BDD3F807013246214603F2071361
:1016000003442846BDE8704018474FF0FF3070BDD6
:10161000754600F0E7F8AE4605006946534620F0EF
:101620000700854618B020B5FEF750FEBDE8204003
:101630004FF000064FF000074FF000084FF0000B8E
:1016400021F00701AC46ACE8C009ACE8C009ACE841
:10165000C009ACE8C0098D467047000010B500F025
:1016600005F8001D10BD00BF655800000048704718
:1016700014F400202DE9F0411F46044603260168BA
:10168000072A01F4006004DB08B116A505E016A5E1
:1016900003E008B115A500E015A521F010002060B9
:1016A000A069C01EA0610FB1401EA0612046FFF7D7
:1016B000FEF84FB1D4E9012138469047206A401C1A
:1016C0002062C01C206206E0206AFAE7D4E901210A
:1016D00015F8010B9047761EF8D22046FFF7FDF86B
:1016E000BDE8F0814E414E006E616E00494E4600ED
:1016F000696E66002DE9F047814616468AB0334888
:1017000078440DC88DE80D0030487844801C03AC47
:101710000DC884E80D0041F69B300844372190FB4A
:10172000F1F290FBF1F5A5F1800501FB12041B3CE1
:1017300002D56442012000E00020DFF890A080463E
:101740000027FA44AAF1BE0A0DE0E00709D03246AC
:10175000684607EB47010AEB810100F014FB8DE8B6
:10176000070064107F1C002CEFD1184F7F44AC3F62
:1017700018E0E80714D007EB04100DF1180A90E800
:101780000E008AE80E00C068F04201D19819089056
:10179000324606A903A800F0F6FA03AB83E8070077
:1017A0006D10641C002DE4D132466946B8F1000F7B
:1017B00003A802D000F0D3FA01E000F0E4FAC9E98E
:1017C0000001C9F808200AB0BDE8F087EC58000015
:1017D00010B50446AFF300802046BDE81040FEF788
:1017E00046BD000000487047F4F300204FF0013C74
:1017F00050F8042B51F8043B9A4221D1A2EB0C0380
:10180000934313EACC1317D150F8042B51F8043B3F
:101810009A4215D1A2EB0C03934313EACC130BD1DC
:1018200050F8042B51F8043B9A4209D1A2EB0C0367
:10183000934313EACC13DBD04FF00000704700BF96
:10184000D01A01BAB1FA81F101F0180122FA01F0BF
:10185000CB40C1F12001DBB2C0B2C01A2CFA01F3B7
:10186000D11A914311EAC311E6D1704770470000C5
:1018700001491820ABBEFEE7260002005FEA400CDB
:1018800008BF91F0000F4FEA8C234FEAC12243EAD0
:1018900051514FEA1C5018BF00F5F0404FEA30009C
:1018A00018BF41F000415FEA6C5C00F02980BCF198
:1018B000FF3F08BF40F080407047130C06BF120482
:1018C0004FF0100C4FF0000C130E04BF12020CF17D
:1018D000080C130F04BF12010CF1040C930F04BF8A
:1018E00092000CF1020CD30F04BF52000CF1010C5A
:1018F00011464FF00002A0F11F00A0EB0C00704752
:1019000011F0004F08BF704731F000413FF4D5AFF0
:101910000B0C06BF09044FF0100C4FF0000C0B0E1F
:1019200004BF09020CF1080C0B0F04BF09010CF1F4
:10193000040C8B0F04BF89000CF1020CCB0F04BF09
:1019400049000CF1010CCCF12003A0EB0C0022FAB1
:1019500003F302FA0CF241EA030100F101007047BF
:1019600020F07F4C80EA030023F07F47ACEB0703B5
:1019700003F57C5300F0004003F1FF032DE980499B
:101980004FEA154B09B44FEA144325EA0B4E24EAFB
:1019900003480FF2042606EB132749083E785FEA56
:1019A000320203FB0667C7F5000707FB06F64FEA9E
:1019B00054374FEAD64606F1020607FB066CCCF117
:1019C000005C4FEA1C472CEA074C07FB06F40CFBB3
:1019D00006F504EB15464FEA961634BF00204FF08B
:1019E00000404FEAD13706FB07FC4FEA1C4C0CFBCA
:1019F0000BF7D21B03FB0CF761EB07010CFB0EF797
:101A0000B0EB074072EB17420CFB08F734BFA2EBB8
:101A10000742B2EB074261EB17414FEA0C444FEA31
:101A2000910706FB07FC4FEA1C4C0CFB0BF7B0EBD5
:101A3000C74072EB573203FB0CF734BFA2EBC7422F
:101A4000B2EBC74261EB57310CFB0EF7B0EBC700AE
:101A500072EB57720CFB08F734BFA2EBC702B2EB74
:101A6000C70261EB5771039F4FEA816141EA92110E
:101A700004EBCC044FEAD1374FEA826206FB07FC45
:101A800042EA90124FEA80604FEA1C4C0CFB0BF7C5
:101A9000D21B03FB0CF761EB07010CFB0EF7B0EB5D
:101AA000074072EB17420CFB08F734BFA2EB07426A
:101AB000B2EB074261EB17414FEA8C554FEA9107B1
:101AC00004EB9C2406FB07FC4FEA1C4C0CFB0BF7B9
:101AD000B0EBC74072EB573203FB0CF734BFA2EBFD
:101AE000C742B2EBC74261EB57310CFB0EF7B0EBCC
:101AF000C70072EB57720CFB08F734BFA2EBC702AA
:101B0000B2EBC70261EB577115EB4C254FEA8161CF
:101B100041EA92114FEA82624FEAD13742EA9012CB
:101B200006FB07FC44F100044FEA80604FEA1C4CBE
:101B30000CFB0BF7D21B03FB0CF761EB07010CFB53
:101B40000EF7B0EB074072EB17420CFB08F734BFFF
:101B5000A2EB0742B2EB074261EB174115EB1C15F4
:101B60004FEA813141EA92414FEA823242EA9042A1
:101B70004FEA80304FEA0C7644F1000448EA034310
:101B80004EEA0B484FF0000EB2EB080C71EB030766
:101B900024BF624639464EEB0E0E4FF0000B001884
:101BA000524149414BEB0B0BB2EB080C71EB0307B5
:101BB0007BF1000B24BF624639464EEB0E0E4FF010
:101BC000000B0018524149414BEB0B0BB2EB080CD8
:101BD00071EB03077BF1000B24BF624639464EEBE5
:101BE0000E0E51EA020718BF46F0010616EB0E76FC
:101BF00055F1000254F1000103D5BDE88901BDE8AB
:101C00000088BDE88901BDE80048B619524141EBA2
:101C10000101A3F10103704780807F7E7D7C7B7A88
:101C20007978777676757473727171706F6E6E6D88
:101C30006C6C6B6A6A69686867666665646463632E
:101C400062616160605F5F5E5E5D5D5C5C5B5B5AB4
:101C50005A59595858575756565555555454535321
:101C600052525251515050504F4F4F4E4E4D4D4D7C
:101C70004C4C4C4B4B4B4A4A4A49494948484847C7
:101C80004747474646464545454444444443434305
:101C90004342424242414141002B26D4770021D0A9
:101CA0001CB54FEA370703B44FF010004FF0100196
:101CB0004FF000000FBCBDE810400BF1010BBBF171
:101CC000010F08BF5FEA170722BF12F1010211F1ED
:101CD00001014FF0004143F1000300F0004043EAEE
:101CE00000007047F9D35708DAE746EA064613F1D1
:101CF000400F4FEA16461FDD13F1200FDFBF1643DA
:101D00000A46002120335B42C8D0C3F1200746EACF
:101D1000064602FA07F74FEA164646EA0706C3F1F7
:101D2000200722FA03F201FA07F721FA03F14FF034
:101D3000000342EA0702B1E746EA020646EA06461F
:101D40004FEA164646EA0106BCBF46EA0646360C8E
:101D50004FF000034FF000024FF000019EE72DE925
:101D6000C048934630B491E8380007C831EA400CC7
:101D700048BF34EA430C03D5FFF7F2FDFFF78CFFB1
:101D8000F0BCBDE800882DE9C048934630B491E826
:101D9000380007C810F0804F08BF13F0804F03D100
:101DA00000F005F8FFF778FFF0BCBDE8008820F0F0
:101DB0007F4780EA030023F07F4C07EB0C03A3F579
:101DC0007C5300F00040A3F1FE0392F0000F00F0FE
:101DD000B38095F0000F00F077802DE901494FEABC
:101DE00011404FEA144621EA004800FB06FC24EAB1
:101DF000064708FB06F607FB08F800FB07F718EB99
:101E000006484CEB164C4FEA124B18EB07484FEACA
:101E100015464CEB174022EA0B4E0BFB06FC25EA5D
:101E200006470EFB06F607FB0EFE0BFB07F71EEB45
:101E3000064E4CEB164C4FF000061EEB074E4CEBDB
:101E4000174B18EB0B0840F1000018EB0E0B58EB8A
:101E5000000840F100008F1A4FF000013CBFC94359
:101E6000661B14BFB5EB040C00213CBFC943F61B35
:101E70004FEA17444EEA8E0E27EA04454FEA1C4704
:101E800004FB07622CEA074C05FB07F70CFB05F681
:101E900004FB0CFC16EB074642EB174216EB0C4614
:101EA00042EB1C421BEB060658EB0202414146EA9C
:101EB0009E0601D5BDE80189B619524141EB0101E9
:101EC000A3F10103BDE801894FEA14454FEA114728
:101ED00024EA054621EA074C05FB07F406FB07F751
:101EE0000CFB06F105FB0CFC11EB074144EB17441E
:101EF0004FEA124711EB0C4144EB1C4422EA074C19
:101F000005FB07F206FB07F70CFB06F605FB0CFCCE
:101F100016EB074642EB174216EB0C4642EB1C450C
:101F20006A1854F1000148BF7047B619524141EB9D
:101F30000101A3F10103704795F0000F37D04FEA7C
:101F400011424FEA144721EA024624EA074C02FBF9
:101F500007F106FB07F70CFB06F402FB0CFC14EB85
:101F6000074441EB17414FEA154714EB0C4441EB92
:101F70001C4125EA074C02FB07F506FB07F70CFBA3
:101F800006F602FB0CFC16EB074645EB174516EB75
:101F90000C4645EB1C42121951F1000148BF704735
:101FA000B619524141EB0101A3F1010370474FEA19
:101FB00014454FEA114724EA054621EA074C05FB80
:101FC00007F106FB07F70CFB06F24FF0000605FBD6
:101FD0000CFC12EB074241EB174112EB0C4251EBA8
:101FE0001C4148BF7047921841EB0101A3F1010366
:101FF000704721B1826842F00102826003E082688A
:1020000022F001028260704710B5044612488442F3
:1020100008D10121401500F0DFFF0021601500F01C
:10202000DBFF17E00D48844208D10121001500F0C4
:10203000D3FF0021201500F0CFFF0BE008488442B9
:1020400008D10121C80300F0C7FF00214FF4004070
:1020500000F0C2FF10BD0000002401400028014034
:10206000003C0140014600208A6802F004020AB1E7
:10207000012000E0002070470146C86C80B2704724
:102080000246002013680B400BB1012000E0002045
:102090007047014600208A6802F008020AB1012058
:1020A00000E000207047000030B502460020002309
:1020B00050680F4C20400D790C6844EA05242043F9
:1020C000506090680B4C2040D1E902542C434D796C
:1020D00044EA450420439060D06A20F470000C7CF0
:1020E000641EE4B2234340EA0350D06230BD0000D6
:1020F000FFFEF0FFFDF7F1FFF0B504460D460020AE
:102100000021092D11DDE068A5F10A0606EB46075E
:10211000072606FA07F18843A5F10A0606EB4606EC
:1021200003FA06F10843E0600CE0206905EB45077F
:10213000072606FA07F1884305EB450603FA06F180
:1021400008432061072A0FDA606B561E06EB8607EC
:102150001F2606FA07F18843561E06EB860605FA87
:1021600006F10843606322E00D2A0FDA206BD61FC8
:1021700006EB86071F2606FA07F18843D61F06EBF3
:10218000860605FA06F10843206310E0E06AA2F132
:102190000D0606EB86071F2606FA07F18843A2F113
:1021A0000D0606EB860605FA06F10843E062F0BD6F
:1021B000816841F008018160704721B1826842F472
:1021C000A002826003E0826822F4A002826070476D
:1021D000816841F0040181607047000000B587B05C
:1021E00001214FF4047000F0E7FE4FF4004000F0CE
:1021F000B7FE1020ADF8040000208DF8070001A9FB
:10220000174800F04DF91748FFF7FEFE0020029036
:102210008DF80C008DF80D004FF460200490002024
:10222000059001208DF8180002A90E48FFF73CFF29
:1022300001210C48FFF7DDFE0A48FFF7B9FF00BF98
:102240000848FFF726FF0028FAD10648FFF7C0FF2D
:1022500000BF0448FFF706FF0028FAD107B000BD11
:10226000001001400024014000BFFEE7002004E010
:102270000021064A1154411C88B2B0F5F04FF7DB3B
:102280000249034A1160034A11607047A878002090
:10229000780000207C00002010B501206B490968FF
:1022A00081F8980000206A4909680873684909683C
:1022B00081F840006649096881F83F00644909686F
:1022C00088756349096848876149096881F836005B
:1022D0005F49096808875E49096881F831005C49EF
:1022E0000968C8755A49096808765949096888769D
:1022F00057490968C87656490968487754490968B2
:10230000C8835349096881F8220051490968488700
:102310004F49096808844E490968C8844C490968CE
:1023200008854B49096881F82A004949096881F8FC
:102330002B004749096881F82C004549096881F854
:102340003100434909684860414909684875404976
:10235000096848813E49096808813D49096881F852
:102360002D003B49096881F82E003949096881F838
:102370002F003749096881F8300035490968087726
:102380003349096881F835003149096881F833001B
:102390002F49096881F84F002D49096881F84C00E0
:1023A0002B49096881F832002949096881F824001D
:1023B0002749096881F825002549096881F83C000A
:1023C0002349096881F83D002149096881F83E00E8
:1023D0001F49096881F841001D49096881F84200D8
:1023E0001B49096881F843001949096881F84400CC
:1023F0001749096881F845001549096881F84600C0
:1024000013490968A1F8480011490968A1F84A0070
:102410000F49096881F84C000D49096881F84D00A1
:102420000B49096881F84E000949096881F84F0095
:102430000749096881F8500040F6C4110548FEF7C5
:10244000EAF905A000F024FD10BD000030000020D6
:102450002C000020520200207379735F63662020F5
:1024600020206F6B202E2E2E2E2E2E0D0A00000007
:1024700010B5A0210148FEF7CEF910BD0878002064
:102480007047000010B5044621460448FEF73AF9AB
:1024900008B1012010BD0020FCE70000A878002052
:1024A0002DE9F041024600250026002000230024EB
:1024B000002791F803C00CF00F0591F803C00CF051
:1024C000100CBCF1000F03D091F802C04CEA0505D6
:1024D00091F800C0BCF1000F31D0146800202BE04F
:1024E0004FF0010C0CFA00F3B1F800C00CEA03063F
:1024F0009E4220D183004FF00F0C0CFA03F7BC432F
:1025000005FA03FC4CEA040491F803C0BCF1280F5F
:1025100006D14FF0010C0CFA00FCC2F814C00AE01E
:1025200091F803C0BCF1480F05D14FF0010C0CFA33
:1025300000FCC2F810C0401C0828D1D31460B1F8C8
:1025400000C0BCF1FF0F34DD546800202EE000F124
:10255000080C4FF0010808FA0CF3B1F800C00CEABF
:1025600003069E4221D183004FF00F0C0CFA03F7B3
:10257000BC4305FA03FC4CEA040491F803C0BCF127
:10258000280F05D100F1080C08FA0CF8C2F81480E5
:1025900091F803C0BCF1480F07D100F1080C4FF0CF
:1025A000010808FA0CF8C2F81080401C0828CED3A5
:1025B0005460BDE8F08101617047000010B511481A
:1025C000006890F8310048B90E48006890F8320071
:1025D00008B903F075FB02F0CFFB12E00948006870
:1025E000007B70B907480068807E012807D1002071
:1025F00004490968C876102002490968887602F003
:10260000BBFB10BD2C00002010B506480649086031
:10261000064908604FF4E13001F0A4F9FFF726FE07
:1026200010BD0000A8780020780000207C00002069
:1026300010B504460723012221460948FFF75CFD37
:1026400001210748FFF7B9FD00BF02210448FFF749
:1026500017FD0028F9D00248FFF70EFD10BD00005D
:102660000024014010B5FFF7B9FD0E20FFF7E0FF91
:102670000949088008460088FEF726F8FDF7FEFDA8
:102680006FF0004190FBF1F201FB1200401C80B2A0
:102690000249088010BD0000680000206A00002088
:1026A00000BFFEE710B5002401F0FEFBFA48006809
:1026B00090F84C0001287DD1F7480068007B012884
:1026C000F9D1F548006890F8300028B1F248006868
:1026D00090F82F0001286ED1EF48006890F82F0085
:1026E00020B90120EC49096881F82F000120EA494E
:1026F000096881F83000E948006890F898000228DD
:1027000002DBE7A000F0C4FBE448006890F8980002
:1027100002280ADBE048006890F82E20DE480068B6
:1027200090F82D10E8A000F0B3FBDB48006890F8AB
:102730002D000028BFD1D848006890F82E0000284E
:10274000B9D1D648006890F8980002280ADBD24830
:10275000006890F84220D048006890F84D10E7A03B
:1027600000F096FBCC48006890F84D0010B10128AD
:102770007ED184E1C948006890F89800022802DB05
:10278000ECA000F085FB002003F0F4FB01F04EFB11
:10279000F048006800EBC00202EB401000F11901A4
:1027A0000422ED4801F06EFBBC48006890F89800E8
:1027B000022801E019E319E325DB00240FE0E548D6
:1027C000006800EBC00101EB401019302044E349E0
:1027D0000A5C2146E2A000F05BFB601CC4B2042C42
:1027E000EDDBB8A000F054FB002407E0DA48025DFE
:1027F0002146E2A000F04CFB601CC4B2042CF5DBC7
:10280000B0A000F045FBD449E44804F0D0FAA34856
:10281000006890F89800012804DBE0480168E0A017
:1028200000F036FBDD480068002875D09B48006842
:1028300090F89800012802DBDFA000F029FBC548D2
:10284000006800EBC00202EB401000F11901042205
:10285000C14801F017FBC049E34804F0A8FAE24878
:102860000C38C168E1A000F013FBDF490C3900E02F
:10287000BAE2C86803F0D6FCDB490C39C860B54839
:10288000006800EBC00202EB401000F11D010422C1
:10289000B14801F0F7FAB049D348001D04F087FAB7
:1028A000D1490C39086903F0BDFCCF490C390861E6
:1028B000A848006800EBC00202EB401000F12101C3
:1028C0000422A54801F0DEFAA349C748083004F005
:1028D0006EFAC5490C39486903F0A4FCC2490C39A9
:1028E00048619C48006800EBC00202EB401000F118
:1028F00025010422984801F0C5FA9749BA480C30DE
:1029000004F055FAB8490C39886903F08BFCB649D4
:102910000C3988618FE0FFE76048006890F8980004
:10292000012802DBB4A000F0B3FABE48006803F04F
:1029300079FCAD490C39C86057490968488903F0EA
:1029400071FCA9490C390861FFF78CFEA6490C39C6
:102950004861486903F066FCA3490C394861FFF7F8
:1029600081FEA1490C398861886903F05BFC9E49AE
:102970000C398861C86803F055FC9B490C39C86064
:102980007549994804F0FAF97248006800EBC002F2
:1029900002EB401000F1190104226F4801F0BEFA69
:1029A00091490C39086903F03DFC8F490C390861E5
:1029B00069498D48001D04F0E1F96648006800EBA4
:1029C000C00202EB401000F11D010422624801F038
:1029D000A5FA85490C39486903F024FC82490C3971
:1029E00048615D498048083004F0C8F959480068DA
:1029F00000EBC00202EB401000F121010422564816
:102A000001F08CFA78490C39886903F00BFC76499F
:102A10000C398861504974480C3004F0AFF94D48C6
:102A2000006800EBC00202EB401000F12501042217
:102A3000494801F073FA4748006800EBC00202EB16
:102A400040111922784801F01DFA1448006890F8E6
:102A5000980002280DDB002406E07348015D73A096
:102A600000F016FA601CC4B2192CF6DB15A000F0B9
:102A70000FFA192205216C4803F0EAFBB5E107487B
:102A8000006890F89800012804DB0348006890F87B
:102A90004510CFE0D1E000002C00002030000020E5
:102AA0005B6874795D486973746F727920446174EE
:102AB00061206E65656420746F2073656E642E2ED0
:102AC0002E2E2E2E0D0A00005B6874795D3A737904
:102AD000732D3E6770727364617461627573793AC5
:102AE000256420207379732D3E677072736265616F
:102AF00074627573793A2564200D0A005B687479F5
:102B00005D7379732D3E68747973656E646368656F
:102B1000636B3A256420202020207379732D3E6456
:102B200061746173656E64636865636B3A25640DF7
:102B30000A0000005B6874792D305D7374617274F3
:102B400020746F2073656E642068747964617461A9
:102B50000D0A00005800002038000020520200201A
:102B60005B6874792D305D646174615F7361766553
:102B70005B25645DA3BA25640D0A00005B68747967
:102B80002D305D75385F345F6275666665725B25F2
:102B9000645DA3BA25640D0A000000003C0000201B
:102BA0005B6874792D305D7533325F74656D70A329
:102BB000BA25640D0A0000005B6874792D305D73DE
:102BC0007461727420746F2073656E642068747908
:102BD0006461746128696E636C7564652074696DE5
:102BE00065290D0A0000000060F200205B6874791E
:102BF0002D305D25640D0A005B6874792D305D739E
:102C00007461727420746F2073656E6420687479C7
:102C100064617461286E6F202074696D65290D0AE6
:102C20000000000064000020A27500202520303242
:102C30005820000070A000F02BF97948006890F847
:102C4000450028B901207649096881F84D00CAE09D
:102C50007348006890F8450002287ED171480068EA
:102C600090F89800012802DB6FA000F011F9794874
:102C70000068E8BB7849C86803F0D4FA7749764819
:102C80000C3004F07BF87648006800EBC00202EBE1
:102C9000401000F119010422704801F03FF96E491B
:102CA000086903F0BFFA6D496B48103004F066F80C
:102CB0006B48006800EBC00202EB401000F11D0100
:102CC0000422664801F02AF96349486903F0AAFA28
:102CD00062496148143004F051F86148006800EB23
:102CE000C00202EB401000F1210104225B4800E029
:102CF00016E001F013F95849886903F093FA57492F
:102D00005548183004F03AF85548006800EBC00206
:102D100002EB401000F125010422504801F0FEF8BA
:102D200000203F49096881F845003D49096881F85C
:102D30004C003B49096881F84D003949096881F820
:102D40002F003749096881F830003549096881F852
:102D5000310001F06BF846E0FFE73148006890F879
:102D6000450001283FD100202D49096881F8450020
:102D70002B49096881F84C002A48006890F89800AF
:102D8000012802DB37A000F083F8012003F0F2F8FD
:102D90003E480068B0F5347F03D100203B4908600D
:102DA00004E03A480068401C3849086000201C498B
:102DB000096881F84D001A49096881F82F001849FF
:102DC000096881F8300001F031F81548006890F882
:102DD0004D00012804D100201149096881F84D00F7
:102DE000012003F0C7F800E000BF04E000200C4918
:102DF000096881F84C0010BD5B6874792D315D73F2
:102E000079732D3E6461746173656E64666C61678D
:102E1000203A25642E2E2E2E2E2E0D0A00000000A4
:102E20002C000020300000205B6874792D315D6437
:102E30006174612073656E6420746F2073657276AF
:102E40006572206661696C202E2E2E2E2E2E2E0D80
:102E50000A0000003C00002054F20020380000204E
:102E60005C0000205B6874792D315D6461746120C1
:102E700073656E6420746F20736572766572206F5F
:102E80006B202E2E2E2E2E2E2E0D0A0058000020E6
:102E90000FB408B50C480078012802D101B05DF8E4
:102EA00014FB00200849087003A800900748009A06
:102EB0000299FDF71DFA054803F0D6FF00200090A7
:102EC0000149087000BFE9E76C000020407600204F
:102ED00000BFFEE77047000070B5002100230F22FD
:102EE000C47804B3154C246804F4E064C4F5E064C9
:102EF000210AC1F10403CA40447804FA03F184783A
:102F00001440214309010E4C0678A155047804F0C1
:102F10001F050124AC4005786D11AD0005F1E025D9
:102F2000C5F8004109E0047804F01F050124AC4015
:102F3000044D0678761145F8264070BD0CED00E092
:102F400000E400E080E100E002490143024A116030
:102F5000704700000000FA050CED00E0704700002B
:102F600001460020034A506820F440400843506066
:102F7000704700000010024029B1064AD26902439E
:102F8000044BDA6104E0034AD2698243014BDA61FF
:102F9000704700000010024029B1064A126902433E
:102FA000044B1A6104E0034A12698243014B1A611F
:102FB000704700000010024029B1064A926902439E
:102FC000044B9A6104E0034A92698243014B9A617F
:102FD000704700000010024029B1064AD26802433F
:102FE000044BDA6004E0034AD2688243014BDA60A2
:102FF000704700000010024030B50021002200247C
:1030000000232D4D6D6805F00C0121B1042905D078
:10301000082923D105E0294D056022E0274D0560F0
:103020001FE0254D6D6805F47012234D6D6805F4A1
:103030008034022505EB92421CB9214D55430560B1
:103040000BE01D4D6D6805F400351DB11C4D554359
:10305000056002E0194D5543056002E0174D05601B
:1030600000BF00BF144D6D6805F0F0010909154D52
:103070006B5C0568DD4045600F4D6D6805F4E061EF
:10308000090A104D6B5C4568DD4085600A4D6D682E
:1030900005F46051C90A0B4D6B5C4568DD40C560A5
:1030A000054D6D6805F44041890B074D6B5CC568A3
:1030B000B5FBF3F5056130BD0010024000127A0047
:1030C00000093D008A0000209A00002010B586B05B
:1030D000044601213420FFF76FFF01214804FFF768
:1030E0004BFF1020ADF814008DF8170003208DF869
:1030F000160005A92648FFF7D3F90420ADF81400FF
:1031000018208DF8170005A92148FFF7C9F90820F4
:10311000ADF8140004208DF8170005A91C48FFF72E
:10312000BFF901214804FFF737FF00214FF40030B9
:10313000FFF732FF01940020ADF80800ADF80A0057
:10314000ADF80C00ADF810000C20ADF80E0001A990
:10315000104800F045FD26208DF8000003208DF872
:1031600001008DF8020001208DF803006846FFF78A
:10317000B3FE012240F22551064800F00CFD01216A
:10318000044800F076FC00200349086006B010BD3A
:1031900000080140004400409001214270B50546FE
:1031A0000E4601200F49086000240CE000BF4021BA
:1031B0000D4800F0B9FC0028F9D0295D0A4800F05C
:1031C00080FD601CC4B2B442F0DB00BF4021064861
:1031D00000F0AAFC0028F9D0002004490870014939
:1031E000086070BD90012142004400407000002042
:1031F0007047000070B505460E4600240CE000BF85
:1032000040210A4800F090FC0028F9D0295D0748C9
:1032100000F057FD601C84B2B442F0D300BF4021DF
:10322000024800F081FC0028F9D070BD0048004041
:1032300010B500F001F810BD0CB500200190009011
:103240003348006840F480303149086000BF30489E
:10325000006800F4003000900198401C0190009834
:1032600018B90198B0F5A06FF1D12948006800F4B1
:10327000003010B10120009001E000200090009883
:10328000012843D12348006840F01000214908601C
:103290000846006820F0030008600846006840F017
:1032A000020008601A4840681949486008464068AA
:1032B00048600846406840F48060486008464068BE
:1032C00020F47C1048600846406840F4E8104860EC
:1032D0000846006840F08070086000BF0C48006835
:1032E00000F000700028F9D00948406820F0030081
:1032F000074948600846406840F00200486000BF47
:103300000348406800F00C000828F9D10CBD00000B
:1033100000100240002002400348007908B9002054
:1033200070470120FCE700000878002010B503F08A
:1033300063FC10BD30B5174800684FF47A72B0FBDB
:10334000F2F1B1F1807F01D301201DE021F07F4037
:10335000401E4FF0E022506150170F22002807DA7C
:1033600013071D0E0C4B00F00F04241F1D5503E026
:1033700013071C0E094B1C5400BF00204FF0E02225
:10338000906107201061002008B9012030BD0020A5
:10339000FCE700000000002018ED00E000E400E081
:1033A00010B504461648006890F89800022802DB21
:1033B00014A0FFF76DFD0020194909680881F4B1D8
:1033C00017480068407D88B90D48006890F898005B
:1033D000022802DB13A0FFF75BFDFFF7ABFF00F055
:1033E000CDF901200E490968487508E004480068D5
:1033F00090F89800022802DB0EA0FFF749FD10BDEF
:10340000300000205B5379735F636C6B5D5379739D
:103410005F636C6B5F4449525645523A00000000AE
:103420002C000020454E41424C45204E4F57212153
:10343000210D0A00454E41424C4520616C72656188
:1034400064790D0A0000000010B51348006840F0D0
:1034500001001149086008464068104908400E49BB
:103460004860084600680E4908400B490860084655
:10347000006820F4802008600846406820F4FE00C0
:1034800048604FF41F008860FFF7D2FE4FF00060E5
:103490000449086010BD0000001002400000FFF861
:1034A000FFFFF6FE08ED00E010B501210B4800F02B
:1034B000F6F888B10121094800F0E2F808480078E0
:1034C000401C07490870084600783C2804D10020B9
:1034D000087001200349087010BD0000000400407E
:1034E00086000020750000207FB505460C460121AE
:1034F0000220FFF741FDADF80850ADF80440002070
:10350000ADF80A00ADF8060001A90D4800F0E4F896
:10351000012211460A4800F0D3F81D208DF8000062
:1035200001208DF801008DF802008DF80300684637
:10353000FFF7D2FC0121024800F0A5F87FBD000092
:103540000004004010B50121074800F0A8F850B170
:103550000121054800F094F8012004490870002179
:10356000014800F090F810BD0008004071000020F4
:103570007FB505460C4601210420FFF7FDFCADF8A0
:103580000850ADF804400020ADF80A00ADF8060080
:1035900001A9104800F0A0F801210E4800F070F8D1
:1035A000012211460B4800F08BF81E208DF8000018
:1035B00001208DF8010002208DF8020001208DF815
:1035C00003006846FFF788FC0021024800F05BF822
:1035D0007FBD00000008004010B501210B4800F03D
:1035E0005EF888B10121094800F04AF808480088CF
:1035F000401C0749088008460088012804D10020A3
:10360000088001200349087010BD0000000C004034
:1036100088000020350000207FB505460C460121BA
:103620000820FFF7A9FCADF80850ADF804400020D1
:10363000ADF80A00ADF8060001A9104800F04CF8FA
:1036400001210E4800F01CF8012211460B4800F041
:1036500037F832208DF8000001208DF8010003209A
:103660008DF8020001208DF803006846FFF734FC56
:103670000121024800F007F87FBD0000000C004067
:10368000CA430282704721B1028842F001020280DF
:1036900004E002884FF6FE731A400280704730B58E
:1036A0000246002000230024158A05EA01039589BB
:1036B00005EA010413B10CB1012000E0002030BD87
:1036C0001AB183890B43838102E083898B43838111
:1036D0007047818470470000002202881D4B984289
:1036E0000ED01D4B98420BD0B0F1804F08D01B4B31
:1036F000984205D01A4B984202D01A4B984204D1F6
:103700004FF68F731A404B881A43174B984207D0D5
:10371000164B984204D04FF6FF431A40CB881A4309
:1037200002808B8883850B8803850A4B98420BD0D7
:10373000094B984208D00E4B984205D00D4B984249
:1037400002D00D4B984201D10B7A0386012383826C
:1037500070470000002C014000340140000400408C
:1037600000080040000C0040001000400014004021
:1037700000400140004401400048014010B541F6BE
:103780001F4142F20F70FFF7AFFE41F61F4131209B
:10379000FFF7EEFE41F61F4140F2E730FFF73CFF36
:1037A00002A0FFF775FB012010BD000054494D45F4
:1037B00020696E6974206F6B2E2E2E2E0D0A00006C
:1037C00010B504460E48006890F89800012805DB03
:1037D0002046FFF75DFB0BA0FFF75AFB0BE000BF95
:1037E0004021094800F0A0F90028F9D014F8011B85
:1037F000054800F066FA20780028F0D110BD0000DE
:10380000300000200D0A00000048004010B540F2D2
:1038100025511D4800F095F910B31B4800F04CFAF3
:10382000C4B21A48008800F40040C8B9174800889C
:1038300000F4804060B10A2C03D0002013490880B6
:1038400020E01248008840F400401049088019E048
:103850000D2C06D10D48008840F480400B490880AB
:1038600010E00A480088C0F30D0009490C540748CD
:103870000088401C0549088008460088C72801DDEB
:103880000020088010BD0000003801406E000020BC
:103890004077002010B540F22551154800F051F94D
:1038A00020B3134800F008FAC4B212480078A028E8
:1038B00014DA00211048FFF70CFF0E48007818B901
:1038C00001210D48FFF7DFFE0C480A4909784454EE
:1038D00008480078401C0749087007E001200849A3
:1038E00008700846017807A0FFF7D2FA10BD000063
:1038F00000440040700000200008004008780020CC
:10390000710000205253343835466C61675B335D7B
:103910003A25642E2E2E2E2E0D0A000010B50024FE
:1039200040F225510C4800F00CF9A0B10A4800F013
:10393000C3F9C4B209480068047008480068401C14
:1039400006490860084601680548814203D3A0F58E
:10395000F0400249086010BD004800407800002097
:10396000A8F0002010B586B0044601218804FFF7B6
:1039700003FB01210C20FFF71FFB314800F086F804
:103980004020ADF8140010208DF8170003208DF8AA
:10399000160005A92B48FEF783FD40212948FEF7B4
:1039A0000AFE4FF48060ADF8140018208DF817005F
:1039B00003208DF8160005A92248FEF771FD0020AE
:1039C000214908604FF40060ADF8140004208DF820
:1039D000170005A91B48FEF763FD01940020ADF810
:1039E0000800ADF80A00ADF80C00ADF810000C208E
:1039F000ADF80E0001A9124800F0F2F827208DF86A
:103A0000000003208DF8010002208DF80200012043
:103A10008DF803006846FFF75FFA012240F2255156
:103A2000074800F0B8F80121054800F022F84021CD
:103A3000034800F015F805A0FFF72AFA06B010BDFC
:103A400000480040000C01409881214255534152EA
:103A5000543320496E6974206F6B20210D0A0000D9
:103A600001F40072B2F5007F00D100BFCA430280AA
:103A7000704721B1828942F40052828104E0828938
:103A80004DF6FF731A4082817047000010B504465E
:103A90002048844209D101218803FFF79DFA0021C3
:103AA0004FF48040FFF798FA32E01B48844209D176
:103AB00001214804FFF770FA00214FF40030FFF7AE
:103AC0006BFA25E01548844209D101218804FFF7EB
:103AD00063FA00214FF48020FFF75EFA18E01048E7
:103AE000844209D10121C804FFF756FA00214FF49E
:103AF0000020FFF751FA0BE00A48844208D1012167
:103B00000805FFF749FA00214FF48010FFF744FA47
:103B100010BD000000380140004400400048004053
:103B2000004C00400050004002460020B1F5007FEC
:103B300000D100BF13880B400BB1012000E0002032
:103B4000704770B50246002400230025002040F68F
:103B50006A16B14200D100BFC1F3421501F01F0344
:103B6000012606FA03F3012D02D19689334006E0BF
:103B7000022D02D1168A334001E0968A33400C129E
:103B8000012606FA04F41688344013B10CB1012062
:103B900000E0002070BDF0B503460024002600259B
:103BA000002040F66A17B94200D100BF1846C1F3A1
:103BB000421401F01F06012707FA06F5012C01D176
:103BC0000C3004E0022C01D1103000E014301AB1A6
:103BD00007682F43076002E00768AF430760F0BD46
:103BE0002DE9F04786B005460E460024A24600BFE8
:103BF000A1460027B08900B100BF2F462C8A4CF6A1
:103C0000FF700440F08804432C82AC894EF6F31018
:103C10000440B08831890843718908430443AC816A
:103C2000AC8A4FF6FF400440B0890443AC8201A83F
:103C3000FFF7E2F91F48874202D1DDF810A001E04A
:103C4000DDF80CA0A88900F4004040B10AEBCA00DE
:103C500000EB0A1031684900B0FBF1F807E00AEB0D
:103C6000CA0000EB0A1031688900B0FBF1F864204B
:103C7000B8FBF0F004012009642101FB1089A88938
:103C800000F4004040B1322000EBC900B0FBF1F07D
:103C900000F00700044308E0322000EB0910642123
:103CA000B0FBF1F000F00F0004432C8106B0BDE83A
:103CB000F08700000038014001468888C0F3080002
:103CC0007047C1F308028280704700BFFEE74900D9
:103CD00050EAC12018BF04204A0D18BF40F001006F
:103CE00040F2FF72B2EB515F08BF40F002000128C2
:103CF00008BF0520704730380A2801D201207047DC
:103D00000020704710B52F480078012858D100F0E6
:103D1000CBF82D48006890F89800012806DB2B4866
:103D2000006890F84C102AA0FFF7B2F82748006806
:103D300090F84C0000283CD12348006890F8980087
:103D400001280ADB2148006890F82E201F480068EF
:103D500090F8301026A0FFF79BF81C48006890F8F8
:103D6000300028B11948006890F82E00012818D1B9
:103D70001648006890F82E0020B900201349096801
:103D800081F8420001201149096881F82E000F498D
:103D9000096881F8300002220021234802F058FA15
:103DA0000EE00020074908700849096881F82E00D4
:103DB00006E00020034908700449096881F82E00D4
:103DC00010BD000075000020300000202C000020F5
:103DD0005B626561745D7379732D3E6874796461AB
:103DE000746173656E64454EA3BA25640D0A0000C4
:103DF0005B626561745D7379732D3E677072736287
:103E000075737920A3BA2564202020207379732D3F
:103E10003E6770727362656174627573793A256486
:103E200020200D0A0000000028000020002000BF14
:103E300004E00021034A1154411CC8B21928F8DBE0
:103E400070470000A275002070B502464FF6FF7063
:103E5000002313E012F8015B684000240AE000F040
:103E6000010525B14AF2010585EA600000E0401035
:103E7000651CECB2082CF2DB5D1CEBB28B42E9DB7B
:103E800070BD000030B5034600200C4600BF05E0C1
:103E9000044D2D5D1D54641C451CA8B29042F7DBF7
:103EA00030BD00005202002010B50F4800680F49D5
:103EB0000968884212D00E48006890F898000128DE
:103EC00006DB0A480268084801680AA0FEF7E0FF1E
:103ED00001201149096881F84C0004E000200E49D6
:103EE000096881F84C0010BD580000205C000020DB
:103EF000300000205B636865636B3A5D52445F6E1F
:103F0000756D3A256420202020202052575F6E7561
:103F10006D3A25640D0A00002C00002070B50346A0
:103F200000200C4600BF05E01D5C044E3555641CA6
:103F3000451CA8B29042F7DB70BD00005202002081
:103F400010B50024F148007801287DD1F0480068C0
:103F500090F8980001280ADBEE48006890F84020AD
:103F6000EC48006890F83E10EBA0FEF791FFE9489E
:103F7000006890F83E00002867D1E648006890F895
:103F8000400010B101287DD125E0E148006890F89B
:103F90009800012802DBEEA0FEF77AFFFEF768FA30
:103FA0000821F848FFF7FAF80120DA49096881F892
:103FB00036000020D74909684887D649096808872C
:103FC0000120D449096881F840000020D1490968DE
:103FD00081F83F00BBE0CF480068408F01286ADDD0
:103FE0000020CC4909684887CA4909680887C94838
:103FF000006890F83F00401CC649096881F83F00FE
:10400000E1480078012857D1C148006890F898002D
:10401000022802DBDDA0FEF73BFF0020DA49087032
:10402000FFF77AF9E74908700020B8490870FEF7F1
:104030001FFA0020B749096881F83F00E14800787D
:1040400020B101282CD10BE085E081E0DD4800782B
:10405000DD4908700020AF49096881F8400020E080
:10406000D948007890B90120D8490870D54800781F
:10407000D54908700120A749096881F84000A54981
:10408000096800E062E081F83E0008E0CD48007871
:10409000CD49087000209F49096881F8400000E080
:1040A00000BF00BF9A48006890F8980001284CDBD8
:1040B000C7A0FEF7EDFE48E09648006890F83F0084
:1040C000062832DD00209349096881F840009048B5
:1040D000006890F89800012809DBC8A0FEF7D8FE18
:1040E0008C48006890F84010CDA0FEF7D1FE00206B
:1040F0008849096881F83F008649096881F83600D7
:104100008449096848878349096808877F49087096
:10411000FEF7AEF97F48006890F84000A8B1002093
:104120007C49096881F840000FE00120794909685D
:1041300081F840007749096881F836000020754908
:104140000968488773490968088700E000BF02E0F2
:1041500000206E4908709D480078012877D16C488E
:10416000006890F89800012806DB6A48006890F81B
:104170004010B1A0FEF78CFE6648006890F8400041
:1041800006287CD2DFE800F07B0329C1C0BF60486D
:10419000006890F89800012802DBB0A0FEF778FED6
:1041A00001205C49096881F83E00FEF761F90821A9
:1041B000B548FEF7F3FF01205649096881F836003B
:1041C0000020544909684887524909680887022035
:1041D0005049096881F8400036E24E480068408F37
:1041E00000287DDD00204B49096848874949096856
:1041F000088765480078012873D10020454909687F
:1042000081F844004248006890F89800012810DBCB
:104210009EA0FEF73DFE002406E0A048015DA0A0A0
:10422000FEF736FE601CC4B2192CF6DB7BA0FEF74D
:104230002FFE002001F09EFE3548006890F898009F
:10424000012808DB3348006890F8311000E027E3CC
:1042500095A0FEF71DFE2F480068007B01284CD179
:104260002C48006890F8300018BB9748006801F0AF
:10427000D9FF9649C86027490968088C00E010E317
:1042800001F0D0FF91490861FEF7ECF99049086010
:104290000846006801F0C6FF8C494861FEF7E2F964
:1042A0008C4908600846006801F0BCFF87498861B6
:1042B00023E08548006801F0B5FF8749086015498B
:1042C0000968088C01F0AEFF84490860FEF7CAF95E
:1042D000834908600846006801F0A4FF804901E0B6
:1042E0004CE101E10860FEF7BDF97E49086008462F
:1042F000006801F097FF7B490860032005490968C1
:1043000081F840003AE117E29FE138E135000020F2
:10431000300000202C0000205B72733438353A31B5
:104320005D7379732D3E7273343835627573793AE3
:1043300025642020207379732D3E64617461636865
:1043400065636B3A25642E2E2E2E2E0D0A0000007A
:104350005B72733438353A312D305D537461727449
:104360002067657420206D616368696E6520207325
:1043700074617465202E2E2E2E2E2E2E2E2E200DA4
:104380000A00000020000020710000205B727334DE
:1043900038353A312D305D47657420206D61636892
:1043A000696E652020737461746520666F72206386
:1043B0006865636B2E2E2E2E2E2E2E2E2E200D0A8D
:1043C00000000000370000203600002034000020EC
:1043D0005B72733438353A312D305D20207374614F
:1043E00074652020636865636B20206F7665722E8C
:1043F0002E2E2E2E2E2E2E2E200D0A005B727334A2
:1044000038353A312D315D67657420737461746598
:10441000206661696C2E2E2E2E2E2E2E0D0A000087
:104420007379732D3E64617461636865636B203AD0
:1044300025640D0A000000005B72733438353A328F
:104440002D315D7379732D3E6461746163686563BA
:104450006B3A25642E2E2E2E2E0D0A005B727334BD
:1044600038353A322D315D47657420206D616368BF
:10447000696E65202064617461202E2E2E2E2E2EF2
:104480002E2E2E200D0A0000180000205B727334BF
:1044900038353A322D325D0D0A00000008780020D0
:1044A00025203032582000005B72733438353A32A0
:1044B0002D325D7379732D3E6E65746F6B3A256492
:1044C0002E2E2E2E2E0D0A006400002054F2002005
:1044D0004000002044000020480000204C00002044
:1044E0005000002054000020EE48006890F844106E
:1044F000EC48006890F84400401CEA4A126882F8D0
:1045000044001E2929DDE848006890F89800012839
:1045100009DBE448006890F84410E4A0FEF7B8FC1A
:10452000F0A0FEF7B5FC0020FA490870DD490968E3
:1045300081F84400DB49096881F83600D9490968E7
:104540004887D84909680887D649096881F8400032
:10455000D449096881F83E0010E00220D149096879
:1045600081F840000120CF49096881F83600002019
:10457000CC4909684887CB4909680887B1E3FFF748
:1045800093FCC948006890F89800012806DBC548EC
:10459000006890F83110E0A0FEF77AFCC14800688E
:1045A00090F84C0000284AD1BE48006890F83100CD
:1045B000012844D1BB480068007B01283FD1B9489D
:1045C000006890F8300028B1B648006890F82D00D7
:1045D000012825D1B348006890F82D0020B90020AB
:1045E000B049096881F842000120AE49096881F8A4
:1045F0003000AC49096881F82D00AB48006890F89C
:104600009800012806DBA748006890F84210CAA06D
:10461000FEF73EFC19220521D14801F019FE13E0F6
:10462000A148006890F89800012802DBCDA0FEF7B1
:104630002FFC05209B49096881F8400004E0052013
:104640009849096881F840004BE39748006890F862
:104650009800012806DB9348006890F84510CAA02E
:10466000FEF716FC8F480068807D012809D10020E4
:104670008C490968887505208A49096881F84000D5
:1046800059E08848006890F8450028B90420854919
:10469000096881F840004EE08248006890F84500C3
:1046A000022816D105207F49096881F840000020C2
:1046B0007C49096881F82D007A49096881F8300041
:1046C0007849096881F83E007649096881F8450013
:1046D00031E07448006890F8450001282BD1002093
:1046E000704909688875B24908706F48006890F889
:1046F0009800012802DBAFA0FEF7CAFB012001F001
:1047000039FC00206749096881F840008149087038
:10471000FDF7AEFE00206349096881F82D0061496C
:10472000096881F830005F49096881F83E005D49F9
:10473000096881F84500D4E25B48006890F8980069
:10474000012802DBA5A0FEF7A3FBAB48006800EB45
:10475000C00202EB401119228148FFF7DFFBA74896
:104760000168A7A0FEF794FBAC48C168ACA0FEF7B7
:104770008FFB4C48006890F83010B2A0FEF788FB21
:1047800048480068007B01287ED19C4800680028CA
:104790007BD04548006890F89800012802DBB1A062
:1047A000FEF776FB9548016895A0FEF771FB9348EC
:1047B000006801F037FD914908600846016890A043
:1047C000FEF766FBB2498D4802F0D8FA002407E0F4
:1047D000AF48015DAFF23830FEF75AFB601CC4B23F
:1047E000042CF5DB4AA0FEF753FB8348006800EB7E
:1047F000C00202EB401000F119010422A448FFF7A7
:104800008DFBA448006801F00DFDA2490860A04995
:10481000A04802F0B3FA7848006800EBC00202EB4F
:10482000401000F11D0104229948FFF777FB9A48D8
:10483000006801F0F7FC984908609549964802F035
:104840009DFA6D48006800EBC00202EB401000F1D9
:10485000210104228E48FFF761FB9048006801F0B7
:10486000E1FC8E4908608A498C4802F087FA624868
:10487000006800EBC00202EB401000F125010422A9
:104880008348FFF74BFB01E09EE109E100205B4913
:104890000860804908608049086080490860CFE16D
:1048A00020E21DE22C000020300000205B727334F7
:1048B00038353A322D325D7379732D3E64617464FC
:1048C00073656E64636C6574696D65733D25642002
:1048D0002E2E2E2E2E2E2E2E2E2E2E2E2E2E0D0A3D
:1048E000000000005B72733438353A322D325D526D
:1048F00053343835206765742064617461206661C3
:10490000696C2E2E2E2E2E2E2E2E2E2E2E2E2E2E4E
:104910000D0A0000340000205B72733438353A32DF
:104920002D335D7379732D3E6E65746F6B3A25641C
:104930002E2E2E2E2E0D0A005B72733438353A322D
:104940002D335D7379732D3E6461746173656E649C
:10495000636865636B3A25642E2E2E2E2E0D0A0099
:10496000087800205B72733438353A322D335D623B
:1049700075737920746F2073656E6420646174614F
:104980002E2E2E2E2E0D0A005B3438353A322D3461
:104990005D7379732D3E6461746173656E64666CDA
:1049A0006167203A25642E2E2E2E2E2E0D0A000031
:1049B000710000205B72733438355D64617461206E
:1049C00073656E6420746F20736572766572206FF4
:1049D0006B202E2E2E2E2E2E2E0D0A005B7273347F
:1049E00038353A322D355D646174612073617665C6
:1049F0002E2E2E2E0D0A00005C0000204800002004
:104A00005B72733438353A322D355D5365636F6EA2
:104A1000645F74656D703A25640D0A0054F20020DD
:104A20005B72733438353A322D355D73646B5F6376
:104A30006D645F696E666F2E7365636F6E643A2591
:104A4000640D0A005B72733438353A322D355D736C
:104A500079732D3E67707273627573793A25640DB0
:104A60000A0000005B72733438353A322D355D64CC
:104A7000617461207361766528696E636C75646525
:104A80002074696D6532292E2E2E2E0D0A0000002D
:104A9000380000204C00002050000020540000206E
:104AA0009148006890F8300000287DD18F48C06898
:104AB000002879D08E48006890F89800012802DB21
:104AC0008CA0FEF7E5F98948C168AFF2AC00FEF7AB
:104AD000DFF98649C86801F0A5FB8449C86008462B
:104AE000C168AFF2C400FEF7D3F98D497F480C309E
:104AF00002F044F9002407E08948015DAFF26060EC
:104B0000FEF7C6F9601CC4B2042CF5DBAFF200203E
:104B1000FEF7BEF98348006800EBC00202EB4010CC
:104B200000F1190104227E48FFF7F8F96F4908697E
:104B300001F078FB6D49086179496C48103002F04A
:104B40001DF97848006800EBC00202EB401000F14C
:104B50001D0104227248FFF7E1F96449486901F038
:104B600061FB624948616E496048143002F006F901
:104B70006C48006800EBC00202EB401000F121011C
:104B800004226748FFF7CAF95849886901F04AFBCF
:104B90005649886162495548183002F0EFF861487B
:104BA000006800EBC00200E04AE002EB401000F1B8
:104BB000250104225A48FFF7B1F900204B49C8608B
:104BC0000861486188613BE04948006890F89800B6
:104BD000012802DB54A0FEF75BF951480021016077
:104BE0005048006800EBC00202EB401000F11901D0
:104BF00004224B48FFF792F94A48006800EBC002D4
:104C000002EB401000F11D0104224548FFF786F930
:104C10004448006800EBC00202EB401000F12101A3
:104C200004223F48FFF77AF93E48006800EBC002D3
:104C300002EB401000F1250104223948FFF76EF91C
:104C40002B48006890F89800012816DB00240EE03D
:104C50003448006800EBC00202EB401020443B4A9D
:104C6000115CAFF2C470FEF713F9601CC4B2192CCA
:104C7000EEDBAFF26430FEF70BF92A480068B0F5BE
:104C8000347F03D100202749086004E025480068EC
:104C9000401C2449086000201349096881F840003D
:104CA0002B4908702B490870FDF7E2FB00200E49E4
:104CB000096881F83E000C49096881F830000A490A
:104CC000096881F82D00012001F054F908480068B6
:104CD00090F89800012802DB1FA0FEF7D9F800E049
:104CE00000BF00BF10BD00002C00002054F20020C7
:104CF000300000205B72733438353A322D355D64F4
:104D0000617461207361766528696E636C75646592
:104D10002074696D6531292E2E2E2E0D0A0000009B
:104D2000380000205C0000205B72733438353A3262
:104D30002D355D646174612073617665286E6F2026
:104D400074696D65292E2E2E2E0D0A005202002048
:104D500034000020710000205B72733438353A3221
:104D60002D355D6461746120736176652066696EBE
:104D700069736865640D0A0010B592B00024F848A4
:104D80000068C07E082880F09D86DFE810F00800EB
:104D9000A3027803E4039104BE05D605E805F048B4
:104DA0000068807E1F283CD2DFE800F03B10263CE4
:104DB0005064788CA0B4C8DCFBF9F8F7F6F5F4F38E
:104DC000F2F13B3B3B3B3B3B3B3BF000E5A0FEF7BE
:104DD000F7FCFDF74BFA0120E1490968C87600208D
:104DE000DF490968C8840120DD4909684877002047
:104DF000DB490968C88300BFFDF738FADDA0FEF77C
:104E0000DFFC0120D6490968C8760020D44909682A
:104E1000C8840120D249096848770020D049096830
:104E2000C8839BE1D5A0FEF7CBFC0120CC490968E3
:104E3000C8760020CA490968C8840120C8490968A1
:104E400048770020C6490968C88387E1CDA0FEF7EE
:104E5000B7FC0220C2490968C8760020C049096829
:104E6000C8840120BE49096848770020BC49096808
:104E7000C88373E1C6A0FEF7A3FC0120B849096806
:104E8000C8760020B6490968C8840120B449096879
:104E900048770020B2490968C8835FE1BFA0FEF7E8
:104EA0008FFC0120AE490968C8760020AC4909682A
:104EB000C8840120AA49096848770020A8490968E0
:104EC000C8834BE1B8A0FEF77BFC0120A449096828
:104ED000C8760020A2490968C8840120A049096851
:104EE000487700209E490968C88337E1B1A0FEF7E2
:104EF00067FC01209A490968C8760020984909682A
:104F0000C8840120964909684877002094490968B7
:104F1000C88323E1ABA0FEF753FC01209049096848
:104F2000C87600208E490968C88401208C49096828
:104F3000487700208A490968C8830FE1A5A0FEF7D9
:104F40003FFC012086490968C87600208449096829
:104F5000C88401208249096848770020804909688F
:104F6000C883FBE09FA0FEF72BFC01207C49096869
:104F7000C87600207A490968C88401207849096800
:104F80004877002076490968C883E7E0D3E0BCE0B1
:104F9000A7E092E07DE068E053E03EE029E014E025
:104FA000FFE795A0FEF70CFC01206D490968C87663
:104FB00000206B490968C88401206949096848775D
:104FC000002067490968C883C8E08EA0FEF7F8FB97
:104FD000012063490968C876002061490968C884CE
:104FE00001205F490968487700205D490968C88346
:104FF000B4E087A0FEF7E4FB012059490968C876B0
:10500000002057490968C884012055490968487734
:10501000002053490968C883A0E081A0FEF7D0FBB7
:1050200003204F490968C87600204D490968C884A3
:1050300001204B4909684877002049490968C8831D
:105040008CE082A0FEF7BCFB012045490968C876C8
:10505000002043490968C88401204149096848770C
:1050600000203F490968C88378E080A0FEF7A8FBCC
:1050700001203B490968C876002039490968C8847D
:105080000120374909684877002035490968C883F5
:1050900064E07EA0FEF794FB012031490968C876E0
:1050A00000202F490968C88401202D4909684877E4
:1050B00000202B490968C88350E078A0FEF780FBE8
:1050C000012027490968C876002025490968C88455
:1050D0000120234909684877002021490968C883CD
:1050E0003CE072A0FEF76CFB01201D490968C87600
:1050F00000201B490968C8840120194909684877BC
:10510000002017490968C88328E0FDF7AFF86AA0B6
:10511000FEF756FB072012490968C876002010499F
:105120000968C88401200E490968487700200C49A5
:105130000968C88312E00A480068028D61A10DA8C1
:10514000FBF7E8F80DA8FEF73BFB042004490968CB
:10515000C876002002490968C88400BF00BFA6E2E3
:105160002C00002041542B434950434C4F53450DD4
:105170000A00000041540D0A00000000415445306F
:105180000D0A000041542B4350494E3F0D0A0000C8
:1051900041542B43475245473F0D0A0041542B438E
:1051A00053510D0A0000000041542B434741545411
:1051B0003F0D0A0041542B434950534855540D0AA2
:1051C0000000000041542B4349504D55583D300DCF
:1051D0000A00000041542B4349505153454E443D71
:1051E000300D0A0041542B435354543D22434D4E3D
:1051F0004554220D0A00000041542B4349494352B3
:105200000D0A000041542B43494653520D0A000039
:1052100041542B4349505354415455530D0A0000F7
:1052200041542B43495053544152543D225443500E
:10523000222C223138302E37362E3135332E363669
:10524000222C383138310D0A0000000041542B5314
:10525000415042523D332C312C22436F6E74797091
:1052600065222C2247505253220D0A0041542B53E1
:10527000415042523D332C312C2241504E222C229F
:10528000434D4E4554220D0A0000000041542B535B
:10529000415042523D312C310D0A000041542B4304
:1052A0004E54504349443D310D0A000041542B43B4
:1052B0004E54500D0A00000041542B43434C4B3FC9
:1052C0000D0A000041542B43495053454E443D259F
:1052D000640D0A00FA480068C08B05281CDDF848F8
:1052E0000068807E012804D0F5480068807E0D2883
:1052F00013D10020F24909684877F1490968C88349
:10530000EF490968C876EE480068807E401CEC4989
:1053100009688876FCF7AAFFB0E0EA48006890F8D0
:105320009800012803DBE849E8A0FDF7B1FD002063
:10533000E3490968C883E2480068C08C401CE04922
:105340000968C884E7A0FDF79DF8002873D1E6A09E
:10535000FDF798F888B10020D9490968C87601207E
:10536000D749096881F832000020D54909680876D4
:105370000120D3490968887680E0D1480068C08C54
:105380000A284ADDCE480068017FCD480068007FCA
:10539000401CCB4A1268107702292DDD0020C84935
:1053A0000968C884C64909680877C5480068807ECE
:1053B000022819D1C348006890F89800012802DB40
:1053C000CBA0FDF765FD0020BD490968C876BC4942
:1053D000096881F832000120B9490968087600207F
:1053E000B7490968887649E0B5480068807E401E64
:1053F000B3490968887641E00020B1490968C87658
:10540000B048006890F89800012837DBAC48006885
:10541000017FBDA0FDF73CFD30E0AA48006890F890
:10542000980001282ADBA6480068C18CBDA0FDF7C2
:105430002FFD23E0FFE7A348006890F898000128BB
:1054400002DBBFA0FDF724FD00209D4909684877D5
:105450009B490968C8839A490968C87698480068D2
:10546000807E401C964909688876FCF7FFFE002084
:1054700093490968C88492490968087723E39048EA
:105480000068C08B0A2865DD00208D490968C88343
:105490008B480068C08C401C89490968C884ACA04E
:1054A000FCF7F0FFB8BB86480068C08C0A2825DDF1
:1054B00083480068017F82480068007F401C804A62
:1054C00012681077022914DD00207D490968C8841C
:1054D0007B4909680877042079490968C8767948C2
:1054E000006890F89800012834DB9BA0FDF7D0FC01
:1054F00030E0002072490968C8762BE071480068E6
:1055000090F89800022825DB6D480068C18C9EA0A9
:10551000FDF7BEFC1EE0FFE76A48006890F89800BF
:10552000012805DBA0A0FDF7B3FCA5A0FDF7B0FCAA
:10553000002063490968C87661480068807E401C85
:105540005F490968887600205D490968C8845C491C
:1055500009680877B7E25A480068C08B0A2845DD19
:10556000002057490968C88355480068C08C401C12
:1055700053490968C8849CA0FCF784FF002860D1C7
:105580004F480068C08C0A284EDD4D48006890F8EE
:1055900035104B48006890F83500401C484A1268A6
:1055A00082F835000A2922DD00204549096881F882
:1055B000350043490968C88441490968C8764049AB
:1055C0000968887601203E490968087600203C4930
:1055D000096881F832003B48006890F8980001287B
:1055E00065DB84A0FDF754FCFCF740FE5FE0002083
:1055F00033490968C88432490968C87601203049AE
:10560000096888762E49096808762E48006890F85F
:105610009800012805DB82A0FDF73AFC8AA0FDF77F
:1056200037FCFCF723FE42E02648006890F898001B
:1056300001283CDB22480068C18C8EA0FDF728FCC5
:1056400035E02048006890F89800012805DB92A01A
:10565000FDF71EFC97A0FDF71BFCFCF707FE0020E2
:1056600017490968C8841649096808770120144950
:1056700009680876002012490968C8760120104997
:105680000968887600200E49096848770C4909683E
:10569000C88301200A49096881F83100FCF7E6FD5A
:1056A00001218D48FDF7EFFF8CA0FDF7F1FB0AE229
:1056B0000448006890F89800012800DB1AE11CE11A
:1056C0002C00002030000020A878002047505253C2
:1056D0002D433A4F4B5B7263655D3A2573200D0A8B
:1056E000000000004F4B00004552524F5200000096
:1056F0005B475052535D72657374617274204750FA
:1057000052532E2E2E0D0A005B475052535D636894
:1057100065636B20636D64206E756D203A25640DA2
:105720000A0000005B475052535D574149542027FF
:105730004F4B272C20434F554E543A25640D0A00F9
:1057400047455420274F4B27204F4B0D0A000000A0
:1057500052454144590000005B475052535D2020A0
:10576000636865636B2073696D20206661696C09ED
:105770002E2E2E2E2E2E2E2E2E2E2E2E2E2E2E2E49
:105780002E2E0D0A000000005B475052535D57411A
:10579000495420275245414459272C20434F554E08
:1057A000543A25640D0A00005B475052535D47454B
:1057B000542027524541445927204F4B0D0A0000E1
:1057C0005B475052535D2D2D2D2D2D2D2D2D2D2D23
:1057D0002D2D2D2D2D2D2D2D2D2D2D2D2D2D2D2DF9
:1057E0002D2D2D2D0D0A0000434F4E4E45435420C4
:1057F0004F4B00005B475052535D7265737461728A
:105800007420475052532E2E2E2E2E2E2E2E2E2EFC
:105810002E2E2E2E2E2E2E2E2E2E2E0D0A00000077
:105820005B475052535D474554204E4F2027434F0E
:105830004E4E454354204F4B272C2054494D454F45
:1058400055542E2E2E0D0A005B475052535D726543
:10585000636865636B20475052532E2E2E2E2E2EDA
:105860002E2E2E2E2E2E2E2E2E2E2E2E2E2E2E0D79
:105870000A0000005B475052535D574149542027AE
:10588000434F4E4E454354204F4B272C20434F55FA
:105890004E543A25640D0A005B475052535D47450C
:1058A000542027434F4E4E454354204F4B27204F03
:1058B0004B0D0A002D2D2D2D2D2D2D544350202024
:1058C000636F6E6E65637420204F4B2D2D2D2D2D33
:1058D0002D2D0D0A000000000004004054494D45E4
:1058E000332020454E41424C452E2E2E2E2E2E2E5C
:1058F0002E0D0A0075A0FDF7CBFA7AA0FDF760FF28
:1059000006207B490968C876DDE07A48006890F88F
:105910009800012802DB78A0FDF7BAFA7CA0FDF719
:105920004FFF002072490968C87671480068807E80
:10593000401E6F4909688876C5E06D480068C08BD5
:10594000B0F5FA7F0ADD052069490968C8760020AC
:1059500067490968487766490968C883B3E06448BD
:105960000068C08B05287DDD002061490968C88377
:105970005F480068C08C401C5D490968C88467A006
:10598000FCF780FD00286ED0AFF2A820FCF77AFD6E
:1059900000287AD01122634905A8FAF7C5FE5548B8
:1059A000006890F89800012803DB05A95EA0FDF7C8
:1059B0006FFA6048011F0A1F131FCDE90032CDE9BD
:1059C00002101B1F0C3A5CA105A8FAF7B9FD494863
:1059D000006890F89800012811DB56481438416996
:1059E0000069544A143AD268CDE900200291514826
:1059F000143883684268016854A0FDF749FA01F041
:105A00006DF85E4908603B48006890F898000128EE
:105A100004DB084601685AA0FDF73AFA57480068C7
:105A200048B33448006890F89800012849DB5CA02E
:105A3000FDF72EFA01202E490968087300202C4931
:105A4000096848772A490968C88329490968C884C8
:105A500001202749096848600020254909684881D4
:105A6000234901E010E010E00968C87601202049D0
:105A70000968887625E01F48006890F8980001289A
:105A80001FDB4FA0FDF704FA1BE019480068C08C2B
:105A90001E2816DD002016490968C88414490968C3
:105AA000487713490968C876102011490968887633
:105AB0001048006890F89800012802DB4EA0FDF71E
:105AC000E7F900E000BF00BF12B010BD5B475052C5
:105AD000535D454E54455220464C59204D4F444548
